{
  "_format": "hh-sol-artifact-1",
  "contractName": "Watch2Earn",
  "sourceName": "contracts/Watch2Earn.sol",
  "abi": [
    {
      "inputs": [],
      "stateMutability": "nonpayable",
      "type": "constructor"
    },
    {
      "anonymous": false,
      "inputs": [
        {
          "indexed": true,
          "internalType": "address",
          "name": "account",
          "type": "address"
        },
        {
          "indexed": true,
          "internalType": "address",
          "name": "operator",
          "type": "address"
        },
        {
          "indexed": false,
          "internalType": "bool",
          "name": "approved",
          "type": "bool"
        }
      ],
      "name": "ApprovalForAll",
      "type": "event"
    },
    {
      "anonymous": false,
      "inputs": [
        {
          "indexed": true,
          "internalType": "address",
          "name": "previousOwner",
          "type": "address"
        },
        {
          "indexed": true,
          "internalType": "address",
          "name": "newOwner",
          "type": "address"
        }
      ],
      "name": "OwnershipTransferred",
      "type": "event"
    },
    {
      "anonymous": false,
      "inputs": [
        {
          "indexed": false,
          "internalType": "address",
          "name": "account",
          "type": "address"
        }
      ],
      "name": "Paused",
      "type": "event"
    },
    {
      "anonymous": false,
      "inputs": [
        {
          "indexed": true,
          "internalType": "address",
          "name": "operator",
          "type": "address"
        },
        {
          "indexed": true,
          "internalType": "address",
          "name": "from",
          "type": "address"
        },
        {
          "indexed": true,
          "internalType": "address",
          "name": "to",
          "type": "address"
        },
        {
          "indexed": false,
          "internalType": "uint256[]",
          "name": "ids",
          "type": "uint256[]"
        },
        {
          "indexed": false,
          "internalType": "uint256[]",
          "name": "values",
          "type": "uint256[]"
        }
      ],
      "name": "TransferBatch",
      "type": "event"
    },
    {
      "anonymous": false,
      "inputs": [
        {
          "indexed": true,
          "internalType": "address",
          "name": "operator",
          "type": "address"
        },
        {
          "indexed": true,
          "internalType": "address",
          "name": "from",
          "type": "address"
        },
        {
          "indexed": true,
          "internalType": "address",
          "name": "to",
          "type": "address"
        },
        {
          "indexed": false,
          "internalType": "uint256",
          "name": "id",
          "type": "uint256"
        },
        {
          "indexed": false,
          "internalType": "uint256",
          "name": "value",
          "type": "uint256"
        }
      ],
      "name": "TransferSingle",
      "type": "event"
    },
    {
      "anonymous": false,
      "inputs": [
        {
          "indexed": false,
          "internalType": "string",
          "name": "value",
          "type": "string"
        },
        {
          "indexed": true,
          "internalType": "uint256",
          "name": "id",
          "type": "uint256"
        }
      ],
      "name": "URI",
      "type": "event"
    },
    {
      "anonymous": false,
      "inputs": [
        {
          "indexed": false,
          "internalType": "address",
          "name": "account",
          "type": "address"
        }
      ],
      "name": "Unpaused",
      "type": "event"
    },
    {
      "inputs": [
        {
          "internalType": "address",
          "name": "account",
          "type": "address"
        },
        {
          "internalType": "uint256",
          "name": "id",
          "type": "uint256"
        }
      ],
      "name": "balanceOf",
      "outputs": [
        {
          "internalType": "uint256",
          "name": "",
          "type": "uint256"
        }
      ],
      "stateMutability": "view",
      "type": "function"
    },
    {
      "inputs": [
        {
          "internalType": "address[]",
          "name": "accounts",
          "type": "address[]"
        },
        {
          "internalType": "uint256[]",
          "name": "ids",
          "type": "uint256[]"
        }
      ],
      "name": "balanceOfBatch",
      "outputs": [
        {
          "internalType": "uint256[]",
          "name": "",
          "type": "uint256[]"
        }
      ],
      "stateMutability": "view",
      "type": "function"
    },
    {
      "inputs": [
        {
          "internalType": "address",
          "name": "account",
          "type": "address"
        },
        {
          "internalType": "uint256",
          "name": "id",
          "type": "uint256"
        },
        {
          "internalType": "uint256",
          "name": "value",
          "type": "uint256"
        }
      ],
      "name": "burn",
      "outputs": [],
      "stateMutability": "nonpayable",
      "type": "function"
    },
    {
      "inputs": [
        {
          "internalType": "address",
          "name": "account",
          "type": "address"
        },
        {
          "internalType": "uint256[]",
          "name": "ids",
          "type": "uint256[]"
        },
        {
          "internalType": "uint256[]",
          "name": "values",
          "type": "uint256[]"
        }
      ],
      "name": "burnBatch",
      "outputs": [],
      "stateMutability": "nonpayable",
      "type": "function"
    },
    {
      "inputs": [
        {
          "internalType": "uint256",
          "name": "id",
          "type": "uint256"
        }
      ],
      "name": "exists",
      "outputs": [
        {
          "internalType": "bool",
          "name": "",
          "type": "bool"
        }
      ],
      "stateMutability": "view",
      "type": "function"
    },
    {
      "inputs": [
        {
          "internalType": "address",
          "name": "account",
          "type": "address"
        },
        {
          "internalType": "address",
          "name": "operator",
          "type": "address"
        }
      ],
      "name": "isApprovedForAll",
      "outputs": [
        {
          "internalType": "bool",
          "name": "",
          "type": "bool"
        }
      ],
      "stateMutability": "view",
      "type": "function"
    },
    {
      "inputs": [
        {
          "internalType": "address",
          "name": "account",
          "type": "address"
        },
        {
          "internalType": "uint256",
          "name": "id",
          "type": "uint256"
        },
        {
          "internalType": "uint256",
          "name": "amount",
          "type": "uint256"
        },
        {
          "internalType": "bytes",
          "name": "data",
          "type": "bytes"
        },
        {
          "internalType": "string",
          "name": "_tokenURI",
          "type": "string"
        }
      ],
      "name": "mint",
      "outputs": [],
      "stateMutability": "nonpayable",
      "type": "function"
    },
    {
      "inputs": [
        {
          "internalType": "address",
          "name": "to",
          "type": "address"
        },
        {
          "internalType": "uint256[]",
          "name": "ids",
          "type": "uint256[]"
        },
        {
          "internalType": "uint256[]",
          "name": "amounts",
          "type": "uint256[]"
        },
        {
          "internalType": "bytes",
          "name": "data",
          "type": "bytes"
        }
      ],
      "name": "mintBatch",
      "outputs": [],
      "stateMutability": "nonpayable",
      "type": "function"
    },
    {
      "inputs": [],
      "name": "owner",
      "outputs": [
        {
          "internalType": "address",
          "name": "",
          "type": "address"
        }
      ],
      "stateMutability": "view",
      "type": "function"
    },
    {
      "inputs": [],
      "name": "pause",
      "outputs": [],
      "stateMutability": "nonpayable",
      "type": "function"
    },
    {
      "inputs": [],
      "name": "paused",
      "outputs": [
        {
          "internalType": "bool",
          "name": "",
          "type": "bool"
        }
      ],
      "stateMutability": "view",
      "type": "function"
    },
    {
      "inputs": [],
      "name": "renounceOwnership",
      "outputs": [],
      "stateMutability": "nonpayable",
      "type": "function"
    },
    {
      "inputs": [
        {
          "internalType": "address",
          "name": "from",
          "type": "address"
        },
        {
          "internalType": "address",
          "name": "to",
          "type": "address"
        },
        {
          "internalType": "uint256[]",
          "name": "ids",
          "type": "uint256[]"
        },
        {
          "internalType": "uint256[]",
          "name": "amounts",
          "type": "uint256[]"
        },
        {
          "internalType": "bytes",
          "name": "data",
          "type": "bytes"
        }
      ],
      "name": "safeBatchTransferFrom",
      "outputs": [],
      "stateMutability": "nonpayable",
      "type": "function"
    },
    {
      "inputs": [
        {
          "internalType": "address",
          "name": "from",
          "type": "address"
        },
        {
          "internalType": "address",
          "name": "to",
          "type": "address"
        },
        {
          "internalType": "uint256",
          "name": "id",
          "type": "uint256"
        },
        {
          "internalType": "uint256",
          "name": "amount",
          "type": "uint256"
        },
        {
          "internalType": "bytes",
          "name": "data",
          "type": "bytes"
        }
      ],
      "name": "safeTransferFrom",
      "outputs": [],
      "stateMutability": "nonpayable",
      "type": "function"
    },
    {
      "inputs": [
        {
          "internalType": "address",
          "name": "operator",
          "type": "address"
        },
        {
          "internalType": "bool",
          "name": "approved",
          "type": "bool"
        }
      ],
      "name": "setApprovalForAll",
      "outputs": [],
      "stateMutability": "nonpayable",
      "type": "function"
    },
    {
      "inputs": [
        {
          "internalType": "uint256",
          "name": "tokenId",
          "type": "uint256"
        },
        {
          "internalType": "string",
          "name": "_tokenURI",
          "type": "string"
        }
      ],
      "name": "setURI",
      "outputs": [],
      "stateMutability": "nonpayable",
      "type": "function"
    },
    {
      "inputs": [
        {
          "internalType": "bytes4",
          "name": "interfaceId",
          "type": "bytes4"
        }
      ],
      "name": "supportsInterface",
      "outputs": [
        {
          "internalType": "bool",
          "name": "",
          "type": "bool"
        }
      ],
      "stateMutability": "view",
      "type": "function"
    },
    {
      "inputs": [
        {
          "internalType": "uint256",
          "name": "id",
          "type": "uint256"
        }
      ],
      "name": "totalSupply",
      "outputs": [
        {
          "internalType": "uint256",
          "name": "",
          "type": "uint256"
        }
      ],
      "stateMutability": "view",
      "type": "function"
    },
    {
      "inputs": [
        {
          "internalType": "address",
          "name": "newOwner",
          "type": "address"
        }
      ],
      "name": "transferOwnership",
      "outputs": [],
      "stateMutability": "nonpayable",
      "type": "function"
    },
    {
      "inputs": [],
      "name": "unpause",
      "outputs": [],
      "stateMutability": "nonpayable",
      "type": "function"
    },
    {
      "inputs": [
        {
          "internalType": "uint256",
          "name": "tokenId",
          "type": "uint256"
        }
      ],
      "name": "uri",
      "outputs": [
        {
          "internalType": "string",
          "name": "",
          "type": "string"
        }
      ],
      "stateMutability": "view",
      "type": "function"
    },
    {
      "inputs": [
        {
          "internalType": "uint256",
          "name": "_amount",
          "type": "uint256"
        }
      ],
      "name": "withdraw",
      "outputs": [],
      "stateMutability": "payable",
      "type": "function"
    },
    {
      "inputs": [],
      "name": "withdrawAll",
      "outputs": [],
      "stateMutability": "payable",
      "type": "function"
    }
  ],
  "bytecode": "0x60806040523480156200001157600080fd5b50604080518082019091526007815266697066733a2f2f60c81b60208201526200003b816200005a565b50620000473362000073565b6003805460ff60a01b19169055620001a8565b80516200006f906002906020840190620000c5565b5050565b600380546001600160a01b038381166001600160a01b0319831681179093556040519116919082907f8be0079c531659141344cd1fd0a4f28419497f9722a3daafe3b4186f6b6457e090600090a35050565b828054620000d3906200016b565b90600052602060002090601f016020900481019282620000f7576000855562000142565b82601f106200011257805160ff191683800117855562000142565b8280016001018555821562000142579182015b828111156200014257825182559160200191906001019062000125565b506200015092915062000154565b5090565b5b8082111562000150576000815560010162000155565b600181811c908216806200018057607f821691505b60208210811415620001a257634e487b7160e01b600052602260045260246000fd5b50919050565b61267180620001b86000396000f3fe60806040526004361061013f5760003560e01c8063715018a6116100b6578063bd85b0391161006f578063bd85b03914610373578063c1341c4f146103a0578063e985e9c5146103c0578063f242432a14610409578063f2fde38b14610429578063f5298aca1461044957600080fd5b8063715018a6146102d95780638456cb59146102ee578063853828b614610303578063862440e21461030b5780638da5cb5b1461032b578063a22cb4651461035357600080fd5b80632eb2c2d6116101085780632eb2c2d6146102095780633f4ba83a146102295780634e1273f41461023e5780634f558e791461026b5780635c975abb1461029a5780636b20c454146102b957600080fd5b8062fdd58e1461014457806301ffc9a7146101775780630e89341c146101a75780631f7fdffa146101d45780632e1a7d4d146101f6575b600080fd5b34801561015057600080fd5b5061016461015f366004611db1565b610469565b6040519081526020015b60405180910390f35b34801561018357600080fd5b50610197610192366004611f37565b610500565b604051901515815260200161016e565b3480156101b357600080fd5b506101c76101c2366004611f71565b610552565b60405161016e91906121c3565b3480156101e057600080fd5b506101f46101ef366004611cdc565b610593565b005b6101f4610204366004611f71565b6105cf565b34801561021557600080fd5b506101f4610224366004611b59565b610621565b34801561023557600080fd5b506101f46106b8565b34801561024a57600080fd5b5061025e610259366004611e66565b6106ec565b60405161016e9190612182565b34801561027757600080fd5b50610197610286366004611f71565b600090815260046020526040902054151590565b3480156102a657600080fd5b50600354600160a01b900460ff16610197565b3480156102c557600080fd5b506101f46102d4366004611c68565b610816565b3480156102e557600080fd5b506101f461085e565b3480156102fa57600080fd5b506101f4610892565b6101f46108c4565b34801561031757600080fd5b506101f4610326366004611f8a565b610912565b34801561033757600080fd5b506003546040516001600160a01b03909116815260200161016e565b34801561035f57600080fd5b506101f461036e366004611d75565b61095b565b34801561037f57600080fd5b5061016461038e366004611f71565b60009081526004602052604090205490565b3480156103ac57600080fd5b506101f46103bb366004611e0e565b61096a565b3480156103cc57600080fd5b506101976103db366004611b26565b6001600160a01b03918216600090815260016020908152604080832093909416825291909152205460ff1690565b34801561041557600080fd5b506101f4610424366004611c03565b6109c0565b34801561043557600080fd5b506101f4610444366004611b04565b610a05565b34801561045557600080fd5b506101f4610464366004611ddb565b610a9d565b60006001600160a01b0383166104da5760405162461bcd60e51b815260206004820152602b60248201527f455243313135353a2062616c616e636520717565727920666f7220746865207a60448201526a65726f206164647265737360a81b60648201526084015b60405180910390fd5b506000908152602081815260408083206001600160a01b03949094168352929052205490565b60006001600160e01b03198216636cdb3d1360e11b148061053157506001600160e01b031982166303a24d0760e21b145b8061054c57506301ffc9a760e01b6001600160e01b03198316145b92915050565b606061055d82610ae0565b600083815260056020908152604091829020915161057d9392910161202e565b6040516020818303038152906040529050919050565b6003546001600160a01b031633146105bd5760405162461bcd60e51b81526004016104d19061237d565b6105c984848484610b74565b50505050565b6003546001600160a01b031633146105f95760405162461bcd60e51b81526004016104d19061237d565b604051339082156108fc029083906000818181858888f1935050505061061e57600080fd5b50565b6001600160a01b03851633148061063d575061063d85336103db565b6106a45760405162461bcd60e51b815260206004820152603260248201527f455243313135353a207472616e736665722063616c6c6572206973206e6f74206044820152711bdddb995c881b9bdc88185c1c1c9bdd995960721b60648201526084016104d1565b6106b18585858585610cce565b5050505050565b6003546001600160a01b031633146106e25760405162461bcd60e51b81526004016104d19061237d565b6106ea610e78565b565b606081518351146107515760405162461bcd60e51b815260206004820152602960248201527f455243313135353a206163636f756e747320616e6420696473206c656e677468604482015268040dad2e6dac2e8c6d60bb1b60648201526084016104d1565b6000835167ffffffffffffffff81111561076d5761076d612569565b604051908082528060200260200182016040528015610796578160200160208202803683370190505b50905060005b845181101561080e576107e18582815181106107ba576107ba612553565b60200260200101518583815181106107d4576107d4612553565b6020026020010151610469565b8282815181106107f3576107f3612553565b602090810291909101015261080781612522565b905061079c565b509392505050565b6001600160a01b038316331480610832575061083283336103db565b61084e5760405162461bcd60e51b81526004016104d190612262565b610859838383610f15565b505050565b6003546001600160a01b031633146108885760405162461bcd60e51b81526004016104d19061237d565b6106ea60006110a3565b6003546001600160a01b031633146108bc5760405162461bcd60e51b81526004016104d19061237d565b6106ea6110f5565b6003546001600160a01b031633146108ee5760405162461bcd60e51b81526004016104d19061237d565b60405133904780156108fc02916000818181858888f193505050506106ea57600080fd5b6003546001600160a01b0316331461093c5760405162461bcd60e51b81526004016104d19061237d565b600082815260056020908152604090912082516108599284019061192e565b61096633838361117d565b5050565b6003546001600160a01b031633146109945760405162461bcd60e51b81526004016104d19061237d565b600084815260056020908152604090912082516109b39284019061192e565b506106b18585858561125e565b6001600160a01b0385163314806109dc57506109dc85336103db565b6109f85760405162461bcd60e51b81526004016104d190612262565b6106b18585858585611334565b6003546001600160a01b03163314610a2f5760405162461bcd60e51b81526004016104d19061237d565b6001600160a01b038116610a945760405162461bcd60e51b815260206004820152602660248201527f4f776e61626c653a206e6577206f776e657220697320746865207a65726f206160448201526564647265737360d01b60648201526084016104d1565b61061e816110a3565b6001600160a01b038316331480610ab95750610ab983336103db565b610ad55760405162461bcd60e51b81526004016104d190612262565b610859838383611451565b606060028054610aef906124ba565b80601f0160208091040260200160405190810160405280929190818152602001828054610b1b906124ba565b8015610b685780601f10610b3d57610100808354040283529160200191610b68565b820191906000526020600020905b815481529060010190602001808311610b4b57829003601f168201915b50505050509050919050565b6001600160a01b038416610b9a5760405162461bcd60e51b81526004016104d1906123fa565b8151835114610bbb5760405162461bcd60e51b81526004016104d1906123b2565b33610bcb81600087878787611493565b60005b8451811015610c6657838181518110610be957610be9612553565b6020026020010151600080878481518110610c0657610c06612553565b602002602001015181526020019081526020016000206000886001600160a01b03166001600160a01b031681526020019081526020016000206000828254610c4e919061245f565b90915550819050610c5e81612522565b915050610bce565b50846001600160a01b031660006001600160a01b0316826001600160a01b03167f4a39dc06d4c0dbc64b70af90fd698a233a518aa5d07e595d983b8c0526c8f7fb8787604051610cb7929190612195565b60405180910390a46106b1816000878787876114a1565b8151835114610cef5760405162461bcd60e51b81526004016104d1906123b2565b6001600160a01b038416610d155760405162461bcd60e51b81526004016104d1906122ab565b33610d24818787878787611493565b60005b8451811015610e0a576000858281518110610d4457610d44612553565b602002602001015190506000858381518110610d6257610d62612553565b602090810291909101810151600084815280835260408082206001600160a01b038e168352909352919091205490915081811015610db25760405162461bcd60e51b81526004016104d190612333565b6000838152602081815260408083206001600160a01b038e8116855292528083208585039055908b16825281208054849290610def90849061245f565b9250508190555050505080610e0390612522565b9050610d27565b50846001600160a01b0316866001600160a01b0316826001600160a01b03167f4a39dc06d4c0dbc64b70af90fd698a233a518aa5d07e595d983b8c0526c8f7fb8787604051610e5a929190612195565b60405180910390a4610e708187878787876114a1565b505050505050565b600354600160a01b900460ff16610ec85760405162461bcd60e51b815260206004820152601460248201527314185d5cd8589b194e881b9bdd081c185d5cd95960621b60448201526064016104d1565b6003805460ff60a01b191690557f5db9ee0a495bf2e6ff9c91a7834c1ba4fdd244a5e8aa4e537bd38aeae4b073aa335b6040516001600160a01b03909116815260200160405180910390a1565b6001600160a01b038316610f3b5760405162461bcd60e51b81526004016104d1906122f0565b8051825114610f5c5760405162461bcd60e51b81526004016104d1906123b2565b6000339050610f7f81856000868660405180602001604052806000815250611493565b60005b8351811015611044576000848281518110610f9f57610f9f612553565b602002602001015190506000848381518110610fbd57610fbd612553565b602090810291909101810151600084815280835260408082206001600160a01b038c16835290935291909120549091508181101561100d5760405162461bcd60e51b81526004016104d19061221e565b6000928352602083815260408085206001600160a01b038b168652909152909220910390558061103c81612522565b915050610f82565b5060006001600160a01b0316846001600160a01b0316826001600160a01b03167f4a39dc06d4c0dbc64b70af90fd698a233a518aa5d07e595d983b8c0526c8f7fb8686604051611095929190612195565b60405180910390a450505050565b600380546001600160a01b038381166001600160a01b0319831681179093556040519116919082907f8be0079c531659141344cd1fd0a4f28419497f9722a3daafe3b4186f6b6457e090600090a35050565b600354600160a01b900460ff16156111425760405162461bcd60e51b815260206004820152601060248201526f14185d5cd8589b194e881c185d5cd95960821b60448201526064016104d1565b6003805460ff60a01b1916600160a01b1790557f62e78cea01bee320cd4e420270b5ea74000d11b0c9f74754ebdbfc544b05a258610ef83390565b816001600160a01b0316836001600160a01b031614156111f15760405162461bcd60e51b815260206004820152602960248201527f455243313135353a2073657474696e6720617070726f76616c20737461747573604482015268103337b91039b2b63360b91b60648201526084016104d1565b6001600160a01b03838116600081815260016020908152604080832094871680845294825291829020805460ff191686151590811790915591519182527f17307eab39ab6107e8899845ad3d59bd9653f200f220920489ca2b5937696c31910160405180910390a3505050565b6001600160a01b0384166112845760405162461bcd60e51b81526004016104d1906123fa565b336112a4816000876112958861160c565b61129e8861160c565b87611493565b6000848152602081815260408083206001600160a01b0389168452909152812080548592906112d490849061245f565b909155505060408051858152602081018590526001600160a01b0380881692600092918516917fc3d58168c5ae7397731d063d5bbf3d657854427343f4c083240f7aacaa2d0f62910160405180910390a46106b181600087878787611657565b6001600160a01b03841661135a5760405162461bcd60e51b81526004016104d1906122ab565b3361136a8187876112958861160c565b6000848152602081815260408083206001600160a01b038a168452909152902054838110156113ab5760405162461bcd60e51b81526004016104d190612333565b6000858152602081815260408083206001600160a01b038b81168552925280832087850390559088168252812080548692906113e890849061245f565b909155505060408051868152602081018690526001600160a01b03808916928a821692918616917fc3d58168c5ae7397731d063d5bbf3d657854427343f4c083240f7aacaa2d0f62910160405180910390a4611448828888888888611657565b50505050505050565b61145c838383611721565b60008281526005602052604090208054611475906124ba565b159050610859576000828152600560205260408120610859916119b2565b610e70868686868686611822565b6001600160a01b0384163b15610e705760405163bc197c8160e01b81526001600160a01b0385169063bc197c81906114e590899089908890889088906004016120df565b602060405180830381600087803b1580156114ff57600080fd5b505af192505050801561152f575060408051601f3d908101601f1916820190925261152c91810190611f54565b60015b6115dc5761153b61257f565b806308c379a01415611575575061155061259b565b8061155b5750611577565b8060405162461bcd60e51b81526004016104d191906121c3565b505b60405162461bcd60e51b815260206004820152603460248201527f455243313135353a207472616e7366657220746f206e6f6e20455243313135356044820152732932b1b2b4bb32b91034b6b83632b6b2b73a32b960611b60648201526084016104d1565b6001600160e01b0319811663bc197c8160e01b146114485760405162461bcd60e51b81526004016104d1906121d6565b6040805160018082528183019092526060916000919060208083019080368337019050509050828160008151811061164657611646612553565b602090810291909101015292915050565b6001600160a01b0384163b15610e705760405163f23a6e6160e01b81526001600160a01b0385169063f23a6e619061169b908990899088908890889060040161213d565b602060405180830381600087803b1580156116b557600080fd5b505af19250505080156116e5575060408051601f3d908101601f191682019092526116e291810190611f54565b60015b6116f15761153b61257f565b6001600160e01b0319811663f23a6e6160e01b146114485760405162461bcd60e51b81526004016104d1906121d6565b6001600160a01b0383166117475760405162461bcd60e51b81526004016104d1906122f0565b33611776818560006117588761160c565b6117618761160c565b60405180602001604052806000815250611493565b6000838152602081815260408083206001600160a01b0388168452909152902054828110156117b75760405162461bcd60e51b81526004016104d19061221e565b6000848152602081815260408083206001600160a01b03898116808652918452828520888703905582518981529384018890529092908616917fc3d58168c5ae7397731d063d5bbf3d657854427343f4c083240f7aacaa2d0f62910160405180910390a45050505050565b6001600160a01b0385166118a95760005b83518110156118a75782818151811061184e5761184e612553565b60200260200101516004600086848151811061186c5761186c612553565b602002602001015181526020019081526020016000206000828254611891919061245f565b909155506118a0905081612522565b9050611833565b505b6001600160a01b038416610e705760005b8351811015611448578281815181106118d5576118d5612553565b6020026020010151600460008684815181106118f3576118f3612553565b6020026020010151815260200190815260200160002060008282546119189190612477565b90915550611927905081612522565b90506118ba565b82805461193a906124ba565b90600052602060002090601f01602090048101928261195c57600085556119a2565b82601f1061197557805160ff19168380011785556119a2565b828001600101855582156119a2579182015b828111156119a2578251825591602001919060010190611987565b506119ae9291506119e8565b5090565b5080546119be906124ba565b6000825580601f106119ce575050565b601f01602090049060005260206000209081019061061e91905b5b808211156119ae57600081556001016119e9565b80356001600160a01b0381168114611a1457600080fd5b919050565b600082601f830112611a2a57600080fd5b81356020611a378261243b565b604051611a4482826124f5565b8381528281019150858301600585901b87018401881015611a6457600080fd5b60005b85811015611a8357813584529284019290840190600101611a67565b5090979650505050505050565b600082601f830112611aa157600080fd5b813567ffffffffffffffff811115611abb57611abb612569565b604051611ad2601f8301601f1916602001826124f5565b818152846020838601011115611ae757600080fd5b816020850160208301376000918101602001919091529392505050565b600060208284031215611b1657600080fd5b611b1f826119fd565b9392505050565b60008060408385031215611b3957600080fd5b611b42836119fd565b9150611b50602084016119fd565b90509250929050565b600080600080600060a08688031215611b7157600080fd5b611b7a866119fd565b9450611b88602087016119fd565b9350604086013567ffffffffffffffff80821115611ba557600080fd5b611bb189838a01611a19565b94506060880135915080821115611bc757600080fd5b611bd389838a01611a19565b93506080880135915080821115611be957600080fd5b50611bf688828901611a90565b9150509295509295909350565b600080600080600060a08688031215611c1b57600080fd5b611c24866119fd565b9450611c32602087016119fd565b93506040860135925060608601359150608086013567ffffffffffffffff811115611c5c57600080fd5b611bf688828901611a90565b600080600060608486031215611c7d57600080fd5b611c86846119fd565b9250602084013567ffffffffffffffff80821115611ca357600080fd5b611caf87838801611a19565b93506040860135915080821115611cc557600080fd5b50611cd286828701611a19565b9150509250925092565b60008060008060808587031215611cf257600080fd5b611cfb856119fd565b9350602085013567ffffffffffffffff80821115611d1857600080fd5b611d2488838901611a19565b94506040870135915080821115611d3a57600080fd5b611d4688838901611a19565b93506060870135915080821115611d5c57600080fd5b50611d6987828801611a90565b91505092959194509250565b60008060408385031215611d8857600080fd5b611d91836119fd565b915060208301358015158114611da657600080fd5b809150509250929050565b60008060408385031215611dc457600080fd5b611dcd836119fd565b946020939093013593505050565b600080600060608486031215611df057600080fd5b611df9846119fd565b95602085013595506040909401359392505050565b600080600080600060a08688031215611e2657600080fd5b611e2f866119fd565b94506020860135935060408601359250606086013567ffffffffffffffff80821115611e5a57600080fd5b611bd389838a01611a90565b60008060408385031215611e7957600080fd5b823567ffffffffffffffff80821115611e9157600080fd5b818501915085601f830112611ea557600080fd5b81356020611eb28261243b565b604051611ebf82826124f5565b8381528281019150858301600585901b870184018b1015611edf57600080fd5b600096505b84871015611f0957611ef5816119fd565b835260019690960195918301918301611ee4565b5096505086013592505080821115611f2057600080fd5b50611f2d85828601611a19565b9150509250929050565b600060208284031215611f4957600080fd5b8135611b1f81612625565b600060208284031215611f6657600080fd5b8151611b1f81612625565b600060208284031215611f8357600080fd5b5035919050565b60008060408385031215611f9d57600080fd5b82359150602083013567ffffffffffffffff811115611fbb57600080fd5b611f2d85828601611a90565b600081518084526020808501945080840160005b83811015611ff757815187529582019590820190600101611fdb565b509495945050505050565b6000815180845261201a81602086016020860161248e565b601f01601f19169290920160200192915050565b600083516020612041828583890161248e565b845491840191600090600181811c908083168061205f57607f831692505b85831081141561207d57634e487b7160e01b85526022600452602485fd5b80801561209157600181146120a2576120cf565b60ff198516885283880195506120cf565b60008b81526020902060005b858110156120c75781548a8201529084019088016120ae565b505083880195505b50939a9950505050505050505050565b6001600160a01b0386811682528516602082015260a06040820181905260009061210b90830186611fc7565b828103606084015261211d8186611fc7565b905082810360808401526121318185612002565b98975050505050505050565b6001600160a01b03868116825285166020820152604081018490526060810183905260a06080820181905260009061217790830184612002565b979650505050505050565b602081526000611b1f6020830184611fc7565b6040815260006121a86040830185611fc7565b82810360208401526121ba8185611fc7565b95945050505050565b602081526000611b1f6020830184612002565b60208082526028908201527f455243313135353a204552433131353552656365697665722072656a656374656040820152676420746f6b656e7360c01b606082015260800190565b60208082526024908201527f455243313135353a206275726e20616d6f756e7420657863656564732062616c604082015263616e636560e01b606082015260800190565b60208082526029908201527f455243313135353a2063616c6c6572206973206e6f74206f776e6572206e6f7260408201526808185c1c1c9bdd995960ba1b606082015260800190565b60208082526025908201527f455243313135353a207472616e7366657220746f20746865207a65726f206164604082015264647265737360d81b606082015260800190565b60208082526023908201527f455243313135353a206275726e2066726f6d20746865207a65726f206164647260408201526265737360e81b606082015260800190565b6020808252602a908201527f455243313135353a20696e73756666696369656e742062616c616e636520666f60408201526939103a3930b739b332b960b11b606082015260800190565b6020808252818101527f4f776e61626c653a2063616c6c6572206973206e6f7420746865206f776e6572604082015260600190565b60208082526028908201527f455243313135353a2069647320616e6420616d6f756e7473206c656e677468206040820152670dad2e6dac2e8c6d60c31b606082015260800190565b60208082526021908201527f455243313135353a206d696e7420746f20746865207a65726f206164647265736040820152607360f81b606082015260800190565b600067ffffffffffffffff82111561245557612455612569565b5060051b60200190565b600082198211156124725761247261253d565b500190565b6000828210156124895761248961253d565b500390565b60005b838110156124a9578181015183820152602001612491565b838111156105c95750506000910152565b600181811c908216806124ce57607f821691505b602082108114156124ef57634e487b7160e01b600052602260045260246000fd5b50919050565b601f8201601f1916810167ffffffffffffffff8111828210171561251b5761251b612569565b6040525050565b60006000198214156125365761253661253d565b5060010190565b634e487b7160e01b600052601160045260246000fd5b634e487b7160e01b600052603260045260246000fd5b634e487b7160e01b600052604160045260246000fd5b600060033d11156125985760046000803e5060005160e01c5b90565b600060443d10156125a95790565b6040516003193d81016004833e81513d67ffffffffffffffff81602484011181841117156125d957505050505090565b82850191508151818111156125f15750505050505090565b843d870101602082850101111561260b5750505050505090565b61261a602082860101876124f5565b509095945050505050565b6001600160e01b03198116811461061e57600080fdfea264697066735822122039dad676321e40b1ea5f3bd86dfa3bc9573502e600002efb83b31641e4aaefbe64736f6c63430008070033",
  "linkReferences": {},
  "deployedLinkReferences": {}
}