{
  "_format": "hh-sol-artifact-1",
  "contractName": "Watch2Earn",
  "sourceName": "contracts/Watch2Earn.sol",
  "abi": [
    {
      "inputs": [
        {
          "internalType": "address",
          "name": "_owner",
          "type": "address"
        }
      ],
      "stateMutability": "nonpayable",
      "type": "constructor"
    },
    {
      "anonymous": false,
      "inputs": [
        {
          "indexed": true,
          "internalType": "address",
          "name": "account",
          "type": "address"
        },
        {
          "indexed": true,
          "internalType": "address",
          "name": "operator",
          "type": "address"
        },
        {
          "indexed": false,
          "internalType": "bool",
          "name": "approved",
          "type": "bool"
        }
      ],
      "name": "ApprovalForAll",
      "type": "event"
    },
    {
      "anonymous": false,
      "inputs": [
        {
          "indexed": true,
          "internalType": "address",
          "name": "previousOwner",
          "type": "address"
        },
        {
          "indexed": true,
          "internalType": "address",
          "name": "newOwner",
          "type": "address"
        }
      ],
      "name": "OwnershipTransferred",
      "type": "event"
    },
    {
      "anonymous": false,
      "inputs": [
        {
          "indexed": false,
          "internalType": "address",
          "name": "account",
          "type": "address"
        }
      ],
      "name": "Paused",
      "type": "event"
    },
    {
      "anonymous": false,
      "inputs": [
        {
          "indexed": true,
          "internalType": "address",
          "name": "operator",
          "type": "address"
        },
        {
          "indexed": true,
          "internalType": "address",
          "name": "from",
          "type": "address"
        },
        {
          "indexed": true,
          "internalType": "address",
          "name": "to",
          "type": "address"
        },
        {
          "indexed": false,
          "internalType": "uint256[]",
          "name": "ids",
          "type": "uint256[]"
        },
        {
          "indexed": false,
          "internalType": "uint256[]",
          "name": "values",
          "type": "uint256[]"
        }
      ],
      "name": "TransferBatch",
      "type": "event"
    },
    {
      "anonymous": false,
      "inputs": [
        {
          "indexed": true,
          "internalType": "address",
          "name": "operator",
          "type": "address"
        },
        {
          "indexed": true,
          "internalType": "address",
          "name": "from",
          "type": "address"
        },
        {
          "indexed": true,
          "internalType": "address",
          "name": "to",
          "type": "address"
        },
        {
          "indexed": false,
          "internalType": "uint256",
          "name": "id",
          "type": "uint256"
        },
        {
          "indexed": false,
          "internalType": "uint256",
          "name": "value",
          "type": "uint256"
        }
      ],
      "name": "TransferSingle",
      "type": "event"
    },
    {
      "anonymous": false,
      "inputs": [
        {
          "indexed": false,
          "internalType": "string",
          "name": "value",
          "type": "string"
        },
        {
          "indexed": true,
          "internalType": "uint256",
          "name": "id",
          "type": "uint256"
        }
      ],
      "name": "URI",
      "type": "event"
    },
    {
      "anonymous": false,
      "inputs": [
        {
          "indexed": false,
          "internalType": "address",
          "name": "account",
          "type": "address"
        }
      ],
      "name": "Unpaused",
      "type": "event"
    },
    {
      "inputs": [
        {
          "internalType": "address",
          "name": "account",
          "type": "address"
        },
        {
          "internalType": "uint256",
          "name": "id",
          "type": "uint256"
        }
      ],
      "name": "balanceOf",
      "outputs": [
        {
          "internalType": "uint256",
          "name": "",
          "type": "uint256"
        }
      ],
      "stateMutability": "view",
      "type": "function"
    },
    {
      "inputs": [
        {
          "internalType": "address[]",
          "name": "accounts",
          "type": "address[]"
        },
        {
          "internalType": "uint256[]",
          "name": "ids",
          "type": "uint256[]"
        }
      ],
      "name": "balanceOfBatch",
      "outputs": [
        {
          "internalType": "uint256[]",
          "name": "",
          "type": "uint256[]"
        }
      ],
      "stateMutability": "view",
      "type": "function"
    },
    {
      "inputs": [
        {
          "internalType": "address",
          "name": "account",
          "type": "address"
        },
        {
          "internalType": "uint256",
          "name": "id",
          "type": "uint256"
        },
        {
          "internalType": "uint256",
          "name": "value",
          "type": "uint256"
        }
      ],
      "name": "burn",
      "outputs": [],
      "stateMutability": "nonpayable",
      "type": "function"
    },
    {
      "inputs": [
        {
          "internalType": "address",
          "name": "account",
          "type": "address"
        },
        {
          "internalType": "uint256[]",
          "name": "ids",
          "type": "uint256[]"
        },
        {
          "internalType": "uint256[]",
          "name": "values",
          "type": "uint256[]"
        }
      ],
      "name": "burnBatch",
      "outputs": [],
      "stateMutability": "nonpayable",
      "type": "function"
    },
    {
      "inputs": [
        {
          "internalType": "uint256",
          "name": "id",
          "type": "uint256"
        }
      ],
      "name": "exists",
      "outputs": [
        {
          "internalType": "bool",
          "name": "",
          "type": "bool"
        }
      ],
      "stateMutability": "view",
      "type": "function"
    },
    {
      "inputs": [
        {
          "internalType": "address",
          "name": "account",
          "type": "address"
        },
        {
          "internalType": "address",
          "name": "operator",
          "type": "address"
        }
      ],
      "name": "isApprovedForAll",
      "outputs": [
        {
          "internalType": "bool",
          "name": "",
          "type": "bool"
        }
      ],
      "stateMutability": "view",
      "type": "function"
    },
    {
      "inputs": [
        {
          "internalType": "address",
          "name": "account",
          "type": "address"
        },
        {
          "internalType": "uint256",
          "name": "id",
          "type": "uint256"
        },
        {
          "internalType": "uint256",
          "name": "amount",
          "type": "uint256"
        },
        {
          "internalType": "bytes",
          "name": "data",
          "type": "bytes"
        },
        {
          "internalType": "string",
          "name": "_tokenURI",
          "type": "string"
        }
      ],
      "name": "mint",
      "outputs": [],
      "stateMutability": "nonpayable",
      "type": "function"
    },
    {
      "inputs": [
        {
          "internalType": "address",
          "name": "to",
          "type": "address"
        },
        {
          "internalType": "uint256[]",
          "name": "ids",
          "type": "uint256[]"
        },
        {
          "internalType": "uint256[]",
          "name": "amounts",
          "type": "uint256[]"
        },
        {
          "internalType": "bytes",
          "name": "data",
          "type": "bytes"
        }
      ],
      "name": "mintBatch",
      "outputs": [],
      "stateMutability": "nonpayable",
      "type": "function"
    },
    {
      "inputs": [],
      "name": "owner",
      "outputs": [
        {
          "internalType": "address",
          "name": "",
          "type": "address"
        }
      ],
      "stateMutability": "view",
      "type": "function"
    },
    {
      "inputs": [],
      "name": "pause",
      "outputs": [],
      "stateMutability": "nonpayable",
      "type": "function"
    },
    {
      "inputs": [],
      "name": "paused",
      "outputs": [
        {
          "internalType": "bool",
          "name": "",
          "type": "bool"
        }
      ],
      "stateMutability": "view",
      "type": "function"
    },
    {
      "inputs": [],
      "name": "renounceOwnership",
      "outputs": [],
      "stateMutability": "nonpayable",
      "type": "function"
    },
    {
      "inputs": [
        {
          "internalType": "address",
          "name": "from",
          "type": "address"
        },
        {
          "internalType": "address",
          "name": "to",
          "type": "address"
        },
        {
          "internalType": "uint256[]",
          "name": "ids",
          "type": "uint256[]"
        },
        {
          "internalType": "uint256[]",
          "name": "amounts",
          "type": "uint256[]"
        },
        {
          "internalType": "bytes",
          "name": "data",
          "type": "bytes"
        }
      ],
      "name": "safeBatchTransferFrom",
      "outputs": [],
      "stateMutability": "nonpayable",
      "type": "function"
    },
    {
      "inputs": [
        {
          "internalType": "address",
          "name": "from",
          "type": "address"
        },
        {
          "internalType": "address",
          "name": "to",
          "type": "address"
        },
        {
          "internalType": "uint256",
          "name": "id",
          "type": "uint256"
        },
        {
          "internalType": "uint256",
          "name": "amount",
          "type": "uint256"
        },
        {
          "internalType": "bytes",
          "name": "data",
          "type": "bytes"
        }
      ],
      "name": "safeTransferFrom",
      "outputs": [],
      "stateMutability": "nonpayable",
      "type": "function"
    },
    {
      "inputs": [
        {
          "internalType": "address",
          "name": "operator",
          "type": "address"
        },
        {
          "internalType": "bool",
          "name": "approved",
          "type": "bool"
        }
      ],
      "name": "setApprovalForAll",
      "outputs": [],
      "stateMutability": "nonpayable",
      "type": "function"
    },
    {
      "inputs": [
        {
          "internalType": "uint256",
          "name": "tokenId",
          "type": "uint256"
        },
        {
          "internalType": "string",
          "name": "_tokenURI",
          "type": "string"
        }
      ],
      "name": "setURI",
      "outputs": [],
      "stateMutability": "nonpayable",
      "type": "function"
    },
    {
      "inputs": [
        {
          "internalType": "bytes4",
          "name": "interfaceId",
          "type": "bytes4"
        }
      ],
      "name": "supportsInterface",
      "outputs": [
        {
          "internalType": "bool",
          "name": "",
          "type": "bool"
        }
      ],
      "stateMutability": "view",
      "type": "function"
    },
    {
      "inputs": [
        {
          "internalType": "uint256",
          "name": "id",
          "type": "uint256"
        }
      ],
      "name": "totalSupply",
      "outputs": [
        {
          "internalType": "uint256",
          "name": "",
          "type": "uint256"
        }
      ],
      "stateMutability": "view",
      "type": "function"
    },
    {
      "inputs": [
        {
          "internalType": "address",
          "name": "newOwner",
          "type": "address"
        }
      ],
      "name": "transferOwnership",
      "outputs": [],
      "stateMutability": "nonpayable",
      "type": "function"
    },
    {
      "inputs": [],
      "name": "unpause",
      "outputs": [],
      "stateMutability": "nonpayable",
      "type": "function"
    },
    {
      "inputs": [
        {
          "internalType": "uint256",
          "name": "tokenId",
          "type": "uint256"
        }
      ],
      "name": "uri",
      "outputs": [
        {
          "internalType": "string",
          "name": "",
          "type": "string"
        }
      ],
      "stateMutability": "view",
      "type": "function"
    },
    {
      "inputs": [
        {
          "internalType": "uint256",
          "name": "_amount",
          "type": "uint256"
        }
      ],
      "name": "withdraw",
      "outputs": [],
      "stateMutability": "payable",
      "type": "function"
    },
    {
      "inputs": [],
      "name": "withdrawAll",
      "outputs": [],
      "stateMutability": "payable",
      "type": "function"
    }
  ],
  "bytecode": "0x60806040523480156200001157600080fd5b50604051620029343803806200293483398101604081905262000034916200026e565b604080518082019091526007815266697066733a2f2f60c81b60208201526200005d8162000088565b506200006933620000a1565b6003805460ff60a01b191690556200008181620000f3565b50620002dd565b80516200009d906002906020840190620001c8565b5050565b600380546001600160a01b038381166001600160a01b0319831681179093556040519116919082907f8be0079c531659141344cd1fd0a4f28419497f9722a3daafe3b4186f6b6457e090600090a35050565b6003546001600160a01b03163314620001535760405162461bcd60e51b815260206004820181905260248201527f4f776e61626c653a2063616c6c6572206973206e6f7420746865206f776e657260448201526064015b60405180910390fd5b6001600160a01b038116620001ba5760405162461bcd60e51b815260206004820152602660248201527f4f776e61626c653a206e6577206f776e657220697320746865207a65726f206160448201526564647265737360d01b60648201526084016200014a565b620001c581620000a1565b50565b828054620001d690620002a0565b90600052602060002090601f016020900481019282620001fa576000855562000245565b82601f106200021557805160ff191683800117855562000245565b8280016001018555821562000245579182015b828111156200024557825182559160200191906001019062000228565b506200025392915062000257565b5090565b5b8082111562000253576000815560010162000258565b6000602082840312156200028157600080fd5b81516001600160a01b03811681146200029957600080fd5b9392505050565b600181811c90821680620002b557607f821691505b60208210811415620002d757634e487b7160e01b600052602260045260246000fd5b50919050565b61264780620002ed6000396000f3fe60806040526004361061013f5760003560e01c8063715018a6116100b6578063bd85b0391161006f578063bd85b03914610373578063c1341c4f146103a0578063e985e9c5146103c0578063f242432a14610409578063f2fde38b14610429578063f5298aca1461044957600080fd5b8063715018a6146102d95780638456cb59146102ee578063853828b614610303578063862440e21461030b5780638da5cb5b1461032b578063a22cb4651461035357600080fd5b80632eb2c2d6116101085780632eb2c2d6146102095780633f4ba83a146102295780634e1273f41461023e5780634f558e791461026b5780635c975abb1461029a5780636b20c454146102b957600080fd5b8062fdd58e1461014457806301ffc9a7146101775780630e89341c146101a75780631f7fdffa146101d45780632e1a7d4d146101f6575b600080fd5b34801561015057600080fd5b5061016461015f366004611d87565b610469565b6040519081526020015b60405180910390f35b34801561018357600080fd5b50610197610192366004611f0d565b610500565b604051901515815260200161016e565b3480156101b357600080fd5b506101c76101c2366004611f47565b610552565b60405161016e9190612199565b3480156101e057600080fd5b506101f46101ef366004611cb2565b610593565b005b6101f4610204366004611f47565b6105cf565b34801561021557600080fd5b506101f4610224366004611b2f565b610621565b34801561023557600080fd5b506101f46106b8565b34801561024a57600080fd5b5061025e610259366004611e3c565b6106ec565b60405161016e9190612158565b34801561027757600080fd5b50610197610286366004611f47565b600090815260046020526040902054151590565b3480156102a657600080fd5b50600354600160a01b900460ff16610197565b3480156102c557600080fd5b506101f46102d4366004611c3e565b610816565b3480156102e557600080fd5b506101f461085e565b3480156102fa57600080fd5b506101f4610892565b6101f46108c4565b34801561031757600080fd5b506101f4610326366004611f60565b610912565b34801561033757600080fd5b506003546040516001600160a01b03909116815260200161016e565b34801561035f57600080fd5b506101f461036e366004611d4b565b61095b565b34801561037f57600080fd5b5061016461038e366004611f47565b60009081526004602052604090205490565b3480156103ac57600080fd5b506101f46103bb366004611de4565b61096a565b3480156103cc57600080fd5b506101976103db366004611afc565b6001600160a01b03918216600090815260016020908152604080832093909416825291909152205460ff1690565b34801561041557600080fd5b506101f4610424366004611bd9565b610996565b34801561043557600080fd5b506101f4610444366004611ada565b6109db565b34801561045557600080fd5b506101f4610464366004611db1565b610a73565b60006001600160a01b0383166104da5760405162461bcd60e51b815260206004820152602b60248201527f455243313135353a2062616c616e636520717565727920666f7220746865207a60448201526a65726f206164647265737360a81b60648201526084015b60405180910390fd5b506000908152602081815260408083206001600160a01b03949094168352929052205490565b60006001600160e01b03198216636cdb3d1360e11b148061053157506001600160e01b031982166303a24d0760e21b145b8061054c57506301ffc9a760e01b6001600160e01b03198316145b92915050565b606061055d82610ab6565b600083815260056020908152604091829020915161057d93929101612004565b6040516020818303038152906040529050919050565b6003546001600160a01b031633146105bd5760405162461bcd60e51b81526004016104d190612353565b6105c984848484610b4a565b50505050565b6003546001600160a01b031633146105f95760405162461bcd60e51b81526004016104d190612353565b604051339082156108fc029083906000818181858888f1935050505061061e57600080fd5b50565b6001600160a01b03851633148061063d575061063d85336103db565b6106a45760405162461bcd60e51b815260206004820152603260248201527f455243313135353a207472616e736665722063616c6c6572206973206e6f74206044820152711bdddb995c881b9bdc88185c1c1c9bdd995960721b60648201526084016104d1565b6106b18585858585610ca4565b5050505050565b6003546001600160a01b031633146106e25760405162461bcd60e51b81526004016104d190612353565b6106ea610e4e565b565b606081518351146107515760405162461bcd60e51b815260206004820152602960248201527f455243313135353a206163636f756e747320616e6420696473206c656e677468604482015268040dad2e6dac2e8c6d60bb1b60648201526084016104d1565b6000835167ffffffffffffffff81111561076d5761076d61253f565b604051908082528060200260200182016040528015610796578160200160208202803683370190505b50905060005b845181101561080e576107e18582815181106107ba576107ba612529565b60200260200101518583815181106107d4576107d4612529565b6020026020010151610469565b8282815181106107f3576107f3612529565b6020908102919091010152610807816124f8565b905061079c565b509392505050565b6001600160a01b038316331480610832575061083283336103db565b61084e5760405162461bcd60e51b81526004016104d190612238565b610859838383610eeb565b505050565b6003546001600160a01b031633146108885760405162461bcd60e51b81526004016104d190612353565b6106ea6000611079565b6003546001600160a01b031633146108bc5760405162461bcd60e51b81526004016104d190612353565b6106ea6110cb565b6003546001600160a01b031633146108ee5760405162461bcd60e51b81526004016104d190612353565b60405133904780156108fc02916000818181858888f193505050506106ea57600080fd5b6003546001600160a01b0316331461093c5760405162461bcd60e51b81526004016104d190612353565b6000828152600560209081526040909120825161085992840190611904565b610966338383611153565b5050565b6000848152600560209081526040909120825161098992840190611904565b506106b185858585611234565b6001600160a01b0385163314806109b257506109b285336103db565b6109ce5760405162461bcd60e51b81526004016104d190612238565b6106b1858585858561130a565b6003546001600160a01b03163314610a055760405162461bcd60e51b81526004016104d190612353565b6001600160a01b038116610a6a5760405162461bcd60e51b815260206004820152602660248201527f4f776e61626c653a206e6577206f776e657220697320746865207a65726f206160448201526564647265737360d01b60648201526084016104d1565b61061e81611079565b6001600160a01b038316331480610a8f5750610a8f83336103db565b610aab5760405162461bcd60e51b81526004016104d190612238565b610859838383611427565b606060028054610ac590612490565b80601f0160208091040260200160405190810160405280929190818152602001828054610af190612490565b8015610b3e5780601f10610b1357610100808354040283529160200191610b3e565b820191906000526020600020905b815481529060010190602001808311610b2157829003601f168201915b50505050509050919050565b6001600160a01b038416610b705760405162461bcd60e51b81526004016104d1906123d0565b8151835114610b915760405162461bcd60e51b81526004016104d190612388565b33610ba181600087878787611469565b60005b8451811015610c3c57838181518110610bbf57610bbf612529565b6020026020010151600080878481518110610bdc57610bdc612529565b602002602001015181526020019081526020016000206000886001600160a01b03166001600160a01b031681526020019081526020016000206000828254610c249190612435565b90915550819050610c34816124f8565b915050610ba4565b50846001600160a01b031660006001600160a01b0316826001600160a01b03167f4a39dc06d4c0dbc64b70af90fd698a233a518aa5d07e595d983b8c0526c8f7fb8787604051610c8d92919061216b565b60405180910390a46106b181600087878787611477565b8151835114610cc55760405162461bcd60e51b81526004016104d190612388565b6001600160a01b038416610ceb5760405162461bcd60e51b81526004016104d190612281565b33610cfa818787878787611469565b60005b8451811015610de0576000858281518110610d1a57610d1a612529565b602002602001015190506000858381518110610d3857610d38612529565b602090810291909101810151600084815280835260408082206001600160a01b038e168352909352919091205490915081811015610d885760405162461bcd60e51b81526004016104d190612309565b6000838152602081815260408083206001600160a01b038e8116855292528083208585039055908b16825281208054849290610dc5908490612435565b9250508190555050505080610dd9906124f8565b9050610cfd565b50846001600160a01b0316866001600160a01b0316826001600160a01b03167f4a39dc06d4c0dbc64b70af90fd698a233a518aa5d07e595d983b8c0526c8f7fb8787604051610e3092919061216b565b60405180910390a4610e46818787878787611477565b505050505050565b600354600160a01b900460ff16610e9e5760405162461bcd60e51b815260206004820152601460248201527314185d5cd8589b194e881b9bdd081c185d5cd95960621b60448201526064016104d1565b6003805460ff60a01b191690557f5db9ee0a495bf2e6ff9c91a7834c1ba4fdd244a5e8aa4e537bd38aeae4b073aa335b6040516001600160a01b03909116815260200160405180910390a1565b6001600160a01b038316610f115760405162461bcd60e51b81526004016104d1906122c6565b8051825114610f325760405162461bcd60e51b81526004016104d190612388565b6000339050610f5581856000868660405180602001604052806000815250611469565b60005b835181101561101a576000848281518110610f7557610f75612529565b602002602001015190506000848381518110610f9357610f93612529565b602090810291909101810151600084815280835260408082206001600160a01b038c168352909352919091205490915081811015610fe35760405162461bcd60e51b81526004016104d1906121f4565b6000928352602083815260408085206001600160a01b038b1686529091529092209103905580611012816124f8565b915050610f58565b5060006001600160a01b0316846001600160a01b0316826001600160a01b03167f4a39dc06d4c0dbc64b70af90fd698a233a518aa5d07e595d983b8c0526c8f7fb868660405161106b92919061216b565b60405180910390a450505050565b600380546001600160a01b038381166001600160a01b0319831681179093556040519116919082907f8be0079c531659141344cd1fd0a4f28419497f9722a3daafe3b4186f6b6457e090600090a35050565b600354600160a01b900460ff16156111185760405162461bcd60e51b815260206004820152601060248201526f14185d5cd8589b194e881c185d5cd95960821b60448201526064016104d1565b6003805460ff60a01b1916600160a01b1790557f62e78cea01bee320cd4e420270b5ea74000d11b0c9f74754ebdbfc544b05a258610ece3390565b816001600160a01b0316836001600160a01b031614156111c75760405162461bcd60e51b815260206004820152602960248201527f455243313135353a2073657474696e6720617070726f76616c20737461747573604482015268103337b91039b2b63360b91b60648201526084016104d1565b6001600160a01b03838116600081815260016020908152604080832094871680845294825291829020805460ff191686151590811790915591519182527f17307eab39ab6107e8899845ad3d59bd9653f200f220920489ca2b5937696c31910160405180910390a3505050565b6001600160a01b03841661125a5760405162461bcd60e51b81526004016104d1906123d0565b3361127a8160008761126b886115e2565b611274886115e2565b87611469565b6000848152602081815260408083206001600160a01b0389168452909152812080548592906112aa908490612435565b909155505060408051858152602081018590526001600160a01b0380881692600092918516917fc3d58168c5ae7397731d063d5bbf3d657854427343f4c083240f7aacaa2d0f62910160405180910390a46106b18160008787878761162d565b6001600160a01b0384166113305760405162461bcd60e51b81526004016104d190612281565b3361134081878761126b886115e2565b6000848152602081815260408083206001600160a01b038a168452909152902054838110156113815760405162461bcd60e51b81526004016104d190612309565b6000858152602081815260408083206001600160a01b038b81168552925280832087850390559088168252812080548692906113be908490612435565b909155505060408051868152602081018690526001600160a01b03808916928a821692918616917fc3d58168c5ae7397731d063d5bbf3d657854427343f4c083240f7aacaa2d0f62910160405180910390a461141e82888888888861162d565b50505050505050565b6114328383836116f7565b6000828152600560205260409020805461144b90612490565b15905061085957600082815260056020526040812061085991611988565b610e468686868686866117f8565b6001600160a01b0384163b15610e465760405163bc197c8160e01b81526001600160a01b0385169063bc197c81906114bb90899089908890889088906004016120b5565b602060405180830381600087803b1580156114d557600080fd5b505af1925050508015611505575060408051601f3d908101601f1916820190925261150291810190611f2a565b60015b6115b257611511612555565b806308c379a0141561154b5750611526612571565b80611531575061154d565b8060405162461bcd60e51b81526004016104d19190612199565b505b60405162461bcd60e51b815260206004820152603460248201527f455243313135353a207472616e7366657220746f206e6f6e20455243313135356044820152732932b1b2b4bb32b91034b6b83632b6b2b73a32b960611b60648201526084016104d1565b6001600160e01b0319811663bc197c8160e01b1461141e5760405162461bcd60e51b81526004016104d1906121ac565b6040805160018082528183019092526060916000919060208083019080368337019050509050828160008151811061161c5761161c612529565b602090810291909101015292915050565b6001600160a01b0384163b15610e465760405163f23a6e6160e01b81526001600160a01b0385169063f23a6e61906116719089908990889088908890600401612113565b602060405180830381600087803b15801561168b57600080fd5b505af19250505080156116bb575060408051601f3d908101601f191682019092526116b891810190611f2a565b60015b6116c757611511612555565b6001600160e01b0319811663f23a6e6160e01b1461141e5760405162461bcd60e51b81526004016104d1906121ac565b6001600160a01b03831661171d5760405162461bcd60e51b81526004016104d1906122c6565b3361174c8185600061172e876115e2565b611737876115e2565b60405180602001604052806000815250611469565b6000838152602081815260408083206001600160a01b03881684529091529020548281101561178d5760405162461bcd60e51b81526004016104d1906121f4565b6000848152602081815260408083206001600160a01b03898116808652918452828520888703905582518981529384018890529092908616917fc3d58168c5ae7397731d063d5bbf3d657854427343f4c083240f7aacaa2d0f62910160405180910390a45050505050565b6001600160a01b03851661187f5760005b835181101561187d5782818151811061182457611824612529565b60200260200101516004600086848151811061184257611842612529565b6020026020010151815260200190815260200160002060008282546118679190612435565b909155506118769050816124f8565b9050611809565b505b6001600160a01b038416610e465760005b835181101561141e578281815181106118ab576118ab612529565b6020026020010151600460008684815181106118c9576118c9612529565b6020026020010151815260200190815260200160002060008282546118ee919061244d565b909155506118fd9050816124f8565b9050611890565b82805461191090612490565b90600052602060002090601f0160209004810192826119325760008555611978565b82601f1061194b57805160ff1916838001178555611978565b82800160010185558215611978579182015b8281111561197857825182559160200191906001019061195d565b506119849291506119be565b5090565b50805461199490612490565b6000825580601f106119a4575050565b601f01602090049060005260206000209081019061061e91905b5b8082111561198457600081556001016119bf565b80356001600160a01b03811681146119ea57600080fd5b919050565b600082601f830112611a0057600080fd5b81356020611a0d82612411565b604051611a1a82826124cb565b8381528281019150858301600585901b87018401881015611a3a57600080fd5b60005b85811015611a5957813584529284019290840190600101611a3d565b5090979650505050505050565b600082601f830112611a7757600080fd5b813567ffffffffffffffff811115611a9157611a9161253f565b604051611aa8601f8301601f1916602001826124cb565b818152846020838601011115611abd57600080fd5b816020850160208301376000918101602001919091529392505050565b600060208284031215611aec57600080fd5b611af5826119d3565b9392505050565b60008060408385031215611b0f57600080fd5b611b18836119d3565b9150611b26602084016119d3565b90509250929050565b600080600080600060a08688031215611b4757600080fd5b611b50866119d3565b9450611b5e602087016119d3565b9350604086013567ffffffffffffffff80821115611b7b57600080fd5b611b8789838a016119ef565b94506060880135915080821115611b9d57600080fd5b611ba989838a016119ef565b93506080880135915080821115611bbf57600080fd5b50611bcc88828901611a66565b9150509295509295909350565b600080600080600060a08688031215611bf157600080fd5b611bfa866119d3565b9450611c08602087016119d3565b93506040860135925060608601359150608086013567ffffffffffffffff811115611c3257600080fd5b611bcc88828901611a66565b600080600060608486031215611c5357600080fd5b611c5c846119d3565b9250602084013567ffffffffffffffff80821115611c7957600080fd5b611c85878388016119ef565b93506040860135915080821115611c9b57600080fd5b50611ca8868287016119ef565b9150509250925092565b60008060008060808587031215611cc857600080fd5b611cd1856119d3565b9350602085013567ffffffffffffffff80821115611cee57600080fd5b611cfa888389016119ef565b94506040870135915080821115611d1057600080fd5b611d1c888389016119ef565b93506060870135915080821115611d3257600080fd5b50611d3f87828801611a66565b91505092959194509250565b60008060408385031215611d5e57600080fd5b611d67836119d3565b915060208301358015158114611d7c57600080fd5b809150509250929050565b60008060408385031215611d9a57600080fd5b611da3836119d3565b946020939093013593505050565b600080600060608486031215611dc657600080fd5b611dcf846119d3565b95602085013595506040909401359392505050565b600080600080600060a08688031215611dfc57600080fd5b611e05866119d3565b94506020860135935060408601359250606086013567ffffffffffffffff80821115611e3057600080fd5b611ba989838a01611a66565b60008060408385031215611e4f57600080fd5b823567ffffffffffffffff80821115611e6757600080fd5b818501915085601f830112611e7b57600080fd5b81356020611e8882612411565b604051611e9582826124cb565b8381528281019150858301600585901b870184018b1015611eb557600080fd5b600096505b84871015611edf57611ecb816119d3565b835260019690960195918301918301611eba565b5096505086013592505080821115611ef657600080fd5b50611f03858286016119ef565b9150509250929050565b600060208284031215611f1f57600080fd5b8135611af5816125fb565b600060208284031215611f3c57600080fd5b8151611af5816125fb565b600060208284031215611f5957600080fd5b5035919050565b60008060408385031215611f7357600080fd5b82359150602083013567ffffffffffffffff811115611f9157600080fd5b611f0385828601611a66565b600081518084526020808501945080840160005b83811015611fcd57815187529582019590820190600101611fb1565b509495945050505050565b60008151808452611ff0816020860160208601612464565b601f01601f19169290920160200192915050565b6000835160206120178285838901612464565b845491840191600090600181811c908083168061203557607f831692505b85831081141561205357634e487b7160e01b85526022600452602485fd5b8080156120675760018114612078576120a5565b60ff198516885283880195506120a5565b60008b81526020902060005b8581101561209d5781548a820152908401908801612084565b505083880195505b50939a9950505050505050505050565b6001600160a01b0386811682528516602082015260a0604082018190526000906120e190830186611f9d565b82810360608401526120f38186611f9d565b905082810360808401526121078185611fd8565b98975050505050505050565b6001600160a01b03868116825285166020820152604081018490526060810183905260a06080820181905260009061214d90830184611fd8565b979650505050505050565b602081526000611af56020830184611f9d565b60408152600061217e6040830185611f9d565b82810360208401526121908185611f9d565b95945050505050565b602081526000611af56020830184611fd8565b60208082526028908201527f455243313135353a204552433131353552656365697665722072656a656374656040820152676420746f6b656e7360c01b606082015260800190565b60208082526024908201527f455243313135353a206275726e20616d6f756e7420657863656564732062616c604082015263616e636560e01b606082015260800190565b60208082526029908201527f455243313135353a2063616c6c6572206973206e6f74206f776e6572206e6f7260408201526808185c1c1c9bdd995960ba1b606082015260800190565b60208082526025908201527f455243313135353a207472616e7366657220746f20746865207a65726f206164604082015264647265737360d81b606082015260800190565b60208082526023908201527f455243313135353a206275726e2066726f6d20746865207a65726f206164647260408201526265737360e81b606082015260800190565b6020808252602a908201527f455243313135353a20696e73756666696369656e742062616c616e636520666f60408201526939103a3930b739b332b960b11b606082015260800190565b6020808252818101527f4f776e61626c653a2063616c6c6572206973206e6f7420746865206f776e6572604082015260600190565b60208082526028908201527f455243313135353a2069647320616e6420616d6f756e7473206c656e677468206040820152670dad2e6dac2e8c6d60c31b606082015260800190565b60208082526021908201527f455243313135353a206d696e7420746f20746865207a65726f206164647265736040820152607360f81b606082015260800190565b600067ffffffffffffffff82111561242b5761242b61253f565b5060051b60200190565b6000821982111561244857612448612513565b500190565b60008282101561245f5761245f612513565b500390565b60005b8381101561247f578181015183820152602001612467565b838111156105c95750506000910152565b600181811c908216806124a457607f821691505b602082108114156124c557634e487b7160e01b600052602260045260246000fd5b50919050565b601f8201601f1916810167ffffffffffffffff811182821017156124f1576124f161253f565b6040525050565b600060001982141561250c5761250c612513565b5060010190565b634e487b7160e01b600052601160045260246000fd5b634e487b7160e01b600052603260045260246000fd5b634e487b7160e01b600052604160045260246000fd5b600060033d111561256e5760046000803e5060005160e01c5b90565b600060443d101561257f5790565b6040516003193d81016004833e81513d67ffffffffffffffff81602484011181841117156125af57505050505090565b82850191508151818111156125c75750505050505090565b843d87010160208285010111156125e15750505050505090565b6125f0602082860101876124cb565b509095945050505050565b6001600160e01b03198116811461061e57600080fdfea26469706673582212202eb3e02abc25672477484a544e579c2a1c683320c99580c2e2c07820d7a3e3b064736f6c63430008070033",
  "linkReferences": {},
  "deployedLinkReferences": {}
}